:030000000200E615
:0C00E600787FE4F6D8FD758109020075F2
:10009600D3EF9400EE940040137D057CC8AB041C9E
:0C00A600EB70FADDF6EF1F70E71E80E43F
:0100B200222B
:1000B300901200E05480FE648060F5901000EFF031
:0100C300221A
:1000C400901200E05480FE648060F5901100EFF01F
:0100D4002209
:1000D500901200E05480FF648060F5901300E0FF0B
:0100E50022F8
:100054007F0A7E001200967F381200B37F0E1200D2
:10006400B37F061200B37F011200B30F7E000200BB
:0100740096F5
:100003007F011200B30F7E00120096E4FD7FFF1202
:1000130000C41200C40DBD08F47FC01200B3E4FD98
:0C0023007FFF1200C41200C40DBD08F4E1
:01002F0022AE
:100075007F647E001200961200547F081200B37F41
:10008500051200301200541200037F051200308063
:01009500E981
:020030008F0837
:10003200750905E508D3940040177509057FC87E48
:10004200001200961509E509D3940050F0150880B6
:01005200E2CB
:01005300228A
:00000001FF
