:0300000002011EDC
:0C011E00787FE4F6D8FD75810702002B05
:10002B007F647E001200AE120003120003120070F8
:10003B007F041200E512004F7F081200D47F0412D8
:04004B0000E580E666
:10009100D3EF9400EE940040137D057CC8AB041CA3
:0C00A100EB70FADDF6EF1F70E71E80E444
:0100AD002230
:0200E500A90769
:1000E700E9D39400400E7A057FC87E00120091DAAA
:0400F700F71980EC89
:0100FB0022E2
:1000AE00D3EF9400EE940040137D057CC8AB041C86
:0C00BE00EB70FADDF6EF1F70E71E80E427
:0100CA002213
:0900CB00ED4480FF1200D47F8097
:1000D400901200E05480FE648060F5901000EFF010
:0100E40022F9
:1000FC00901200E05480FE648060F5901100EFF0E7
:01010C0022D0
:10010D00901200E05480FF648060F5901300E0FFD2
:01011D0022BF
:100003007F057E001200AE7F207E031200AE7F309C
:100013001200D47F061200D47F0E1200D47F011287
:0800230000D40F7E000200AEC4
:10004F007F361200D4E4FD1200CBE4FCE4FF120073
:10005F00FC1200FC0CBC10F40DBD20EB7F30020035
:01006F00D4BC
:100070007F361200D4E4FD1200CBE4FC7FFF1200B7
:10008000FC1200FC0CBC10F40DBD20EB7F30020014
:01009000D49B
:00000001FF
