:03000000020003F8
:0C000300787FE4F6D8FD75811402004AF5
:1002C600D291D29000000000C29100000000C290BE
:0502D600000000002201
:10027F00C29100000000D29000000000D291000057
:09028F000000D2910000000022E1
:10013C00E4FEEF30E704D2918002C291000000008F
:10014C00D290EF25E0FF0000000000000000C290FC
:10015C00000000000EBE08DAD291D291000000001F
:10016C00D2900000000000000000C29000000000CF
:01017C002260
:10017D00D291D291E4FFFED2900000000000000069
:10018D0000EF25E0FF3091010FC290000000000E3E
:10019D00BE08E4D29100000000D2900000000000E3
:0901AD00000000C29000000000F7
:0101B6002226
:1001FC00AD07AC061202C6ED7807CEC313CE13D8EA
:10020C00F9543E4460FF12013CAF0512013C02025E
:01021C007F62
:0E0312001202C67F6F12013C12017D12027FA3
:0103200022BA
:03032100011400C4
:03032F00DFFE22CC
:1002F000AE07EED394004008E4FF12032F1E80F2F5
:0103000022DA
:10021D00D2B4C2B47FFA12032F7F6412032FD2B46B
:10022D007F1E12032FA2B4E433FE7F6412032FFF4F
:01023D00229E
:10030100D2B4C2B4D2B47F0112032FA2B4E433FF3A
:0103110022C9
:1001DA00E4FEFD120301EF600D7401A80508800218
:1001EA00C333D8FC42067F1412032F0DBD08E4AFB7
:0101FA0006FE
:0101FB0022E1
:10029800AE07D2B4C2B47F0212032FBE0102D2B499
:0802A8007F1E12032FD2B422C5
:02023E00AD070A
:10024000E4FCEDA804088003A2E713D8FBFB5303EA
:0F02500001AF031202980CBC08E87F1E02032FB7
:1001B700AA077FCC12023E7F4E12023EAF02120206
:1001C7003E12021D7FCC12023E7F4812023E7F1470
:0301D7000202F031
:1000F900E4F51412021D7FCC12023E7FBE12023EAD
:100109001201DAAC071201DAAD0712021DEDD39420
:100119007F400AECF404FC6305FF751401EC540FED
:1001290075F006A4F512ECC4540FFCEDC454F04C60
:02013900F513BC
:01013B0022A1
:0A032400080888888888888888887F
:10008F0012021D7FCC12023E7F4412023E7F037E7E
:10009F00041201FC7F807E051201FC12025FC293E5
:1000AF00759702E4FF1202DB12021D7FCC12023E93
:1000BF007F4412023E7F321202B01200F9E5127530
:1000CF00F00A8485F008E51275F00A84F509E51346
:1000DF0075F00A84E5F04480F50AE51375F00A849B
:0A00EF00F50B12025F12021D80B92A
:10025F00AF087408FE1201FCAF097409FE1201FC0D
:10026F00AF0A740AFE1201FCAF0B740BFE0201FC05
:1002B000EFD39400400F7E057DC8AC051DEC70FAAD
:0502C000DEF61F80EBDB
:0102C5002216
:0202DB00AB076F
:1002DD00EBD39400400C7A057FC81202B0DAF91BFB
:0202ED0080EEA1
:0102EF0022EC
:10000F0002008FE493A3F8E493A34003F68001F278
:10001F0008DFF48029E493A3F85407240CC8C333F2
:10002F00C4540F4420C8834004F456800146F6DFC1
:10003F00E4800B0102040810204080900321E47E2D
:10004F00019360BCA3FF543F30E509541FFEE493B6
:10005F00A360010ECF54C025E060A840B8E493A37D
:10006F00FAE493A3F8E493A3C8C582C8CAC583CAA8
:10007F00F0A3C8C582C8CAC583CADFE9DEE780BE60
:01032E0000CE
:00000001FF
