:0300000002098072
:0C098000787FE4F6D8FD7581200209C7DD
:040D12004100160086
:100E7A009060007413F0A37408F07401F0E4F09029
:060E8A0060007420F0225C
:03001300020B934A
:100B9300C0E0C0F0C083C082C0D075D000C000C028
:0D0BA30001C002C003C004C005C006C007A9
:100BB000906000E0E05407FF147017900016E0709A
:100BC0000ED2A9D28C04F0758C00758A00800312B5
:080BD0000A959060007420F00A
:100BD800D007D006D005D004D003D002D001D00071
:0B0BE800D0D0D082D083D0F0D0E0321B
:070F5900000000000000226F
:0F0F2C00D290120F59C291120F59C290020F5951
:100ED100C291120F59D290120F59D291120F59C2C9
:040EE10090020F5913
:100EE500D290120F59A29192000000C290120F5990
:020EF500A20059
:010EF70022D8
:100E90007E08EF339291EF25E0FF120EE5DEF3D2EC
:050EA00091120EE5B304
:010EA500222A
:100F0A00E4FF7E08EF25E0FF120EE550010FDEF444
:010F1A0022B4
:020DA000AD079D
:100DA200120F2C7FA0120E90501AAF05120E905007
:100DB20013120F2C7FA1120E905009120F0A120E5D
:040DC200D1120F59E2
:010DC600220A
:100DED00AC07120F2C7FA0120E905014AF04120EF0
:100DFD0090500DAF05120E905006120ED1120F59D4
:010E0D0022C2
:100EBC00D291D29000000000C29100000000C290BC
:050ECC000000000022FF
:100E2F00C29100000000D29000000000D29100009B
:090E3F000000D291000000002225
:100C9100E4FEEF30E704D2918002C291000000002F
:100CA100D290EF25E0FF0000000000000000C2909C
:100CB100000000000EEEB408D9D291D291000000DC
:100CC10000D2900000000000000000C2900000006F
:010CD1000022
:010CD20022FF
:100CD300D291D291E4FFFED2900000000000000008
:100CE30000EF25E0FF3091010FC2900000000000EB
:100CF3000000000EEEB408DFD29100000000D29095
:0E0D03000000000000000000C2900000000090
:010D110022BF
:100E0E00AD07AC06120EBCED7807CEC313CE13D8C9
:100E1E00F9543E4460FF120C91AF05120C91020E74
:010E2E002F94
:0E0F3B00120EBC7F6F120C91120CD3120E2FEF
:010F49002285
:100D160041001400410012004100150041000E0080
:100D26004100100041000F0041000C0041000D0081
:0B0D36004100130044000840BD00FF16
:100D42007F037E04120E0E7F807E05120E0E120CA1
:100D52004B7F007E08120E0E120E7A4392085391B8
:0F0D6200F7120F1B120E48120A0C120F6080F2CC
:100E4800900016E060FA900012E0C3940840F77F23
:090E580096120EF8C2AAC2A922EA
:100A0C00900005E0120DC70A3C000A7C010A5C024A
:100A1C000A4C040A6C060A44080A35090A640A0AD4
:100A2C00540C0A740E00000A84E4900017F0804EF7
:100A3C009000177401F080469000177402F0803E0D
:100A4C009000177403F080369000177404F0802E19
:100A5C009000177405F080269000177406F0801E25
:100A6C009000177407F080169000177408F0800E31
:100A7C009000177409F08006900017740FF0900026
:090A8C0017E0FF740BFE020E0ED0
:060F6000120B1B020E61E2
:100F1B00C293758901E4F58CF58AD2AFD2AAD28A35
:010F2B0022A3
:0E0F4A00EF600B7E057D02DDFEDEFA1F80F2F9
:010F58002276
:100EF800EFD39400400B7EF87D02DDFEDEFA1F8002
:010F0800EFF9
:010F090022C5
:1008D800900012E024F0603124F8605024F860623F
:1008E8002418600302097F900015E0FE540FF9EE0A
:1008F800C4540FFDE97071ED64046002806A9000D1
:1009080001EDF0900000E9F022900015E0FF540F8F
:10091800F9EFC4540FFDE9B40D05ED640B600280D6
:1009280047900003EDF0900002E9F022900015E0F6
:10093800FE540F900004F0EE54F0A3F0E0C4540FFE
:10094800F022900015E0F4FF540FF9EFC4540FFDA6
:10095800900004E0B50111A3E0B5050C900007ED87
:10096800F0900006E9F08000E4900012F090001684
:07097800F0C28A900014F0A8
:01097F002255
:100A9500C28C900014E014601004705EE58CB413F1
:100AA50008900014E004F08051E58CC394034010D5
:100AB500E58CD394055009900015E0FF25E08018DA
:100AC500E58CC39406401AE58CD394085013900026
:100AD50015E0FF25E0F04401F0900012E004F080FD
:100AE50016E58CD39408400FE4900012F0900016A0
:100AF500F0C28A900014F01208D8900012E0B420D9
:100B05000DC28CE4900016F0C28A900014F0E4F552
:060B15008CF58AD28C224F
:100BF300900001E0FF740FFE120E0E900000E0FF64
:100C0300740EFE120E0E900003E0FF740DFE120E22
:100C13000E900002E0FF740CFE120E0E900005E031
:100C2300FF740BFE120E0E900004E0FF740AFE1216
:100C33000E0E900007E0FF7409FE120E0E900006E0
:080C4300E0FF7408FE020E0E32
:100C4B007F007E05120E0E7F007E0F120E0E7F00B0
:100C5B007E0E120E0E7F007E0D120E0E7F007E0C8E
:100C6B00120E0E7F007E0B120E0E7F007E0A120EEE
:100C7B000E7F007E09120E0E7F007E08120E0E7F75
:060C8B00807E05020E0E42
:100B1B00900005E0120DC70B4B000B82010B660218
:100B2B000B58040B74060B51080B44090B6D0A0B85
:100B3B005F0C0B7B0E00000B8990000A74908043B6
:100B4B00E490000A803D90000A7480803690000A81
:100B5B007440802F90000A74C0802890000A742083
:100B6B00802190000A74A0801A90000A7460801390
:100B7B0090000A74E0800C90000A741080059000BD
:080B8B000A74FFF0F4A3F0224C
:100E6100120EA67FC8120EF87FC8120EF8D28ED2CB
:090E71008C90000EE0B401F9229E
:100EA600D293758911D2A9D2AB758DFF758BF47566
:060EB6008CDC758AD822D5
:03000B00020800E8
:0F080000C0E0C083C082C0D075D000C006C00762
:10080F00C28ED293900010E01460160460030208A9
:10081F00CB758CEE758A6CC28E900010E004F08060
:10082F001690000FE024FE60160460030208CB75DB
:10083F008CFD758AD0D28E90000FE004F0807D90F1
:10084F00000CE0FFB4202190000E7401F0C28CC2A6
:10085F008E90000CE4F0A3F0900013F0C293900080
:10086F0010F090000FF08054EF54077018900013A1
:10087F00E02408F582E43400F583E0900011F09055
:10088F000013E004F0900011E0FF5480C413131321
:10089F005401FEEF25E0F0AF06EF14600B04700E6D
:1008AF00758CFD758AD08006758CF9758A709000ED
:0C08BF000FE014F090000CE004F0C28E7A
:0D08CB00D007D006D0D0D082D083D0E0324C
:03001B00020D7162
:100D7100C0E0C083C082758DFF758BF490000DE0DB
:100D810014600D047012C29390000DE004F080080D
:0F0D9100D29390000DE014F0D082D083D0E032E6
:10098C00020D42E493A3F8E493A34003F68001F232
:10099C0008DFF48029E493A3F85407240CC8C3336C
:1009AC00C4540F4420C8834004F456800146F6DF3B
:1009BC00E4800B0102040810204080900D12E47EAC
:1009CC00019360BCA3FF543F30E509541FFEE49330
:1009DC00A360010ECF54C025E060A840B8E493A3F7
:1009EC00FAE493A3F8E493A3C8C582C8CAC583CA22
:1009FC00F0A3C8C582C8CAC583CADFE9DEE780BEDA
:010D410000B1
:100DC700D083D082F8E4937012740193700DA3A3BB
:100DD70093F8740193F5828883E4737402936860CF
:060DE700EFA3A3A380DFCF
:00000001FF
