:0300000002008378
:0C008300787FE4F6D8FD75810B020003C5
:1000030075084075090085098285088374FEF075BB
:100013000AFEE4F50B120044E50A25E0F50A050B98
:10002300E50BC3940840EEE4F50AF50BE50BC39426
:100033000850DC120044E50A25E004F50A050B80AC
:01004300EBD1
:10006600D3EF9400EE940040137D057CC8AB041CCE
:0C007600EB70FADDF6EF1F70E71E80E46F
:01008200225B
:0B004400850982850883E50AF07F0132
:02004F00A907FF
:10005100E9D39400400E7A057FC87E00120066DA6B
:04006100F71980EC1F
:010065002278
:00000001FF
