:030000000206E213
:0C06E200787FE4F6D8FD75813A02000331
:10065C00D291D29000000000C29100000000C29024
:05066C00000000002267
:10061600C29100000000D29000000000D2910000BC
:090626000000D291000000002246
:1004AD00E4FEEF30E704D2918002C291000000001B
:1004BD00D290EF25E0FF0000000000000000C29088
:1004CD00000000000EBE08DAD291D29100000000AB
:1004DD00D2900000000000000000C290000000005B
:0104ED0022EC
:1004EE00D291D291E4FFFED29000000000000000F5
:1004FE0000EF25E0FF3091010FC290000000000ECA
:10050E00BE08E4D29100000000D29000000000006E
:09051E00000000C2900000000082
:0105270022B1
:1005B300AD07AC0612065CED7807CEC313CE13D895
:1005C300F9543E4460FF1204ADAF051204AD0206B8
:0105D3001611
:0E06A90012065C7F6F1204AD1204EE120616EC
:0106B7002220
:0706C700D2901206CEC29191
:0706CE000000000000002203
:0806EE001206C7C2900206CEFD
:10067100C2911206CED2901206CED2911206CEC2ED
:04068100900206CE0F
:10068500D2901206CEA29192010000C2901206CE1F
:02069500A201C0
:010697002240
:0F06B800D2911206C7C2901206CED290D29122D2
:100646007E08EF339291EF25E0FF120685DEF3D2A6
:0506560091120685B3BE
:01065B00227C
:10069800E4FF7E08EF25E0FF12068550010FDEF427
:0106A800222F
:02058C00AD07B9
:10058E001206EE7FA0120646501AAF05120646500E
:10059E00131206EE7FA11206465009120698120695
:0405AE00711206CEF2
:0105B2002226
:1005D400AC071206EE7FA01206465014AF041206B2
:1005E40046500DAF0512064650061206711206CE8D
:0105F40022E4
:0906D5000000001E1E1E1E1E0086
:100561008F388D391206EE7F90120646501CE53801
:100571005477FF1206465012AF39120646500B123D
:0B0581000671000000000000000022D6
:020528008F380A
:10052A00E4F539F53A1206EE7F901206465025AFE9
:10053A0038120646501E1206EE7F911206465014D5
:10054A001206CE1206CE1206988F391206B8120675
:06055A0071AF3922AF3938
:010560002278
:020468008F08FB
:10046A00E4F509F50A1206EE7F901206465033AFFC
:10047A0008120646502C1206EE7F911206465022AA
:10048A00E50AC3940450181206CE1206CE12069834
:10049A00AE0A050A740B2EF8A6071206B880E112F6
:0204AA000671D9
:0104AC00222D
:1000030078247C007D007BFF7A0679D57E007F080B
:100013001202CCE4F52CF52D782E7C00FD7BFF7AC3
:100023000679DDFE7F051202CCE4F533F5357F3228
:10003300FE1205F97F037E041205B37F807E05124D
:1000430005B37B007A0079248B218A22892312034A
:10005300D3E4F534852C2D2097171205F53097FD41
:100063001205F574FB252CF52CD394964003E4F587
:100073002C2095171205F53095FD1205F57405250D
:100083002CF52CD394964003752C96E52C652D60A6
:1000930006852C337534C91205F50534E534C3944C
:1000A300C840B1AD337F401205617F647E00120505
:1000B300F97F401205288F2E7F647E001205F97F99
:1000C300401205288F2F7F647E001205F97F4012AE
:1000D30005288F307F647E001205F97F40120528C2
:1000E3008F317F647E001205F9E52E252FFFE4335F
:1000F300FE7C00EF2530FFEC3EFEEF2531FFEC3EAA
:10010300FEEF7802CEA2E713CE13D8F8F53225E03E
:10011300F53275F00A84AB21AA22A923900004E5E5
:10012300F012034AE53275F00A8475F00A849000F0
:1001330005E5F012034AE53275F064849000061277
:10014300034A90000512030BFF7E007C067D4312D9
:10015300036CC006C00790000612030BFF7E007CF1
:100163003E7DA712036CD0E02FFDD0E03EFC900053
:100173000412030B75F0A0A4AEF02DF537EE3CF599
:1001830036FEAF377C007D0A12037EEF75F00A84DA
:10019300AB21AA22A923E5F0120338AE36AF377C90
:1001A300007D6412037E7C007D0A12037EAB21AACC
:1001B30022A923900001ED12034AAE36AF377C0328
:1001C3007DE812037E7C007D0A12037EAB21AA2206
:1001D300A923900002ED12034AAE36AF377C277D88
:1001E3001012037EEF4480AB21AA22A923900003BF
:0901F30012034A1203D302005466
:1003D3008B388A39893A1202F2FF7408FE1205B388
:1003E300AB38AA39A93A90000112030BFF7409FE36
:1003F3001205B3AB38AA39A93A90000212030BFFD6
:10040300740AFE1205B3AB38AA39A93A9000031255
:10041300030BFF740BFE1205B3AB38AA39A93A904C
:10042300000412030BFF740CFE1205B3AB38AA3998
:10043300A93A90000512030BFF740DFE1205B3AB2E
:1004430038AA39A93A90000612030BFF740EFE1264
:1004530005B3AB38AA39A93A90000712030BFF740E
:050463000FFE0205B3CD
:0405F5007F0A7E00FB
:1005F900D3EF9400EE940040137D057CC8AB041C36
:0C060900EB70FADDF6EF1F70E71E80E4D6
:0106150022C2
:02062F00A90719
:10063100E9D39400400E7A057FC87E001205F9DAED
:04064100F71980EC39
:010645002292
:1001FC00E709F608DFFA8046E709F208DFFA803EE5
:10020C0088828C83E709F0A3DFFA8032E309F608D1
:10021C00DFFA8078E309F208DFFA807088828C8339
:10022C00E309F0A3DFFA806489828A83E0A3F608ED
:10023C00DFFA805889828A83E0A3F208DFFA804CC7
:10024C0080D280FA80C680D4806980F2803380109E
:10025C0080A680EA809A80A880DA80E280CA803307
:10026C0089828A83ECFAE493A3C8C582C8CCC5837F
:10027C00CCF0A3C8C582C8CCC583CCDFE9DEE7804F
:10028C000D89828A83E493A3F608DFF9ECFAA9F0CE
:10029C00EDFB2289828A83ECFAE0A3C8C582C8CC24
:1002AC00C583CCF0A3C8C582C8CCC583CCDFEADE3D
:1002BC00E880DB89828A83E493A3F208DFF980CC9F
:1002CC0088F0EF60010E4E60C388F0ED2402B40498
:1002DC000050B9F582EB2402B4040050AF2323453F
:0602EC00822390024C7316
:1002F200BB010689828A83E0225002E722BBFE020A
:09030200E32289828A83E493223C
:10030B00BB010CE58229F582E5833AF583E02250A7
:10031B0006E92582F8E622BBFE06E92582F8E222F1
:0D032B00E58229F582E5833AF583E493220B
:10033800BB010689828A83F0225002F722BBFE01A4
:02034800F3229E
:10034A00F8BB010DE58229F582E5833AF583E8F0E9
:10035A00225006E92582C8F622BBFE05E92582C895
:02036A00F2227D
:10036C00EF8DF0A4A8F0CF8CF0A428CE8DF0A42EA5
:02037C00FE225F
:10037E00BC000BBE0029EF8DF084FFADF022E4CC63
:10038E00F875F008EF2FFFEE33FEEC33FCEE9DEC2C
:10039E00984005FCEE9DFE0FD5F0E9E4CEFD22ED72
:1003AE00F8F5F0EE8420D21CFEADF075F008EF2FBC
:1003BE00FFED33FD4007985006D5F0F222C398FDAD
:0503CE000FD5F0EA224A
:00000001FF
