:03000000020016E5
:0C001600787FE4F6D8FD75812502005DBE
:1002430010090F0E0D0C0B0A09080706050403021B
:0802530001000108000119007F
:100310009060007413F0A37408F07401F0E4F0909E
:0603200060007420F022D1
:030013000200A246
:1000A200C0E0C0F0C083C082C0D075D000C000C024
:0D00B20001C002C003C004C005C006C007A5
:1000BF00906000E0F525E0F525532507E525146050
:1000CF000B146014240270167F00800E7F017E0FC8
:1000DF001202661202C4800E7F027E0F8005AF25CA
:0C00EF00740FFE1202669060007420F096
:1000FB00D007D006D005D004D003D002D001D00059
:0B010B00D0D0D082D083D0F0D0E03202
:10028700120003EF24C0FF131313541F25E025E0CA
:100297002409F8EF540328F8E6FF7408FE02026603
:1002A700051A752240752300E51A25E044FD8523CC
:0D02B70082852283F0AF1A7408FE020266F1
:1002C400E519B4010BE4F519050853080F85081A5C
:0A02D400852382852283747FF022C7
:10033C00D291D29000000000C29100000000C29047
:05034C0000000000228A
:1002DE00C29100000000D29000000000D2910000F8
:0902EE000000D291000000002282
:10018400E4FEEF30E704D2918002C2910000000047
:10019400D290EF25E0FF0000000000000000C290B4
:1001A400000000000EBE08DAD291D29100000000D7
:1001B400D2900000000000000000C2900000000087
:0101C4002218
:10020500D291D291E4FFFED29000000000000000E0
:1002150000EF25E0FF3091010FC2900000000000C3
:100225000000000EBE08E0D29100000000D2900050
:0D02350000000000000000C290000000006A
:010242002299
:10026600AD07AC0612033CED7807CEC313CE13D808
:10027600F9543E4460FF120184AF05120184020264
:01028600DE99
:0E00030012033C7F6F1201841202051202DE0E
:0100110022CC
:0A025B00081A000000000000000077
:10011600E4F5241202F775224075230085238285B3
:100126002283747FF07F007E081202662095487F46
:10013600C812032685238285228374FEF02095212A
:10014600E519B40109B2937F0A12032680EFE51977
:100156007008AF1A7408FE120266751902D29380EF
:10016600DCD2937519017FC8120326751901852300
:0E0176008285228374FFF0D29375190180AE4A
:1002F700D2AA7597011203107F037E041202667F4C
:09030700807E05120266D2AF22CD
:1001C500AF1A7408FE120266AF1B7409FE120266AE
:1001D500AF1C740AFE120266AF1D740BFE12026696
:1001E500AF1E740CFE120266AF1F740DFE1202667E
:1001F500AF20740EFE120266AF21740FFE02026676
:10032600EFD39400400F7E057DC8AC051DEC70FA36
:05033600DEF61F80EB64
:01033B00229F
:02035100AB07F8
:10035300EBD39400400C7A057FC8120326DAF91B0D
:0203630080EE2A
:010365002275
:10002200020116E493A3F8E493A34003F68001F2DD
:1000320008DFF48029E493A3F85407240CC8C333DF
:10004200C4540F4420C8834004F456800146F6DFAE
:10005200E4800B0102040810204080900243E47EF9
:10006200019360BCA3FF543F30E509541FFEE493A3
:10007200A360010ECF54C025E060A840B8E493A36A
:10008200FAE493A3F8E493A3C8C582C8CAC583CA95
:10009200F0A3C8C582C8CAC583CADFE9DEE780BE4D
:010265000098
:00000001FF
