:03000000020016E5
:0C001600787FE4F6D8FD75812E02005DB5
:1003460010080F0E0D0C0B0A090807060504030218
:020356000100A4
:1002F1009060007413F0A37408F07401F0E4F090BE
:0603010060007420F022F0
:030013000200A246
:1000A200C0E0C0F0C083C082C0D075D000C000C024
:0D00B20001C002C003C004C005C006C007A5
:1000BF00906000E0F519E0F519531907E519146080
:1000CF00131460162402701E7F007E0E12022E1271
:1000DF00026E801A7F017E0E80117F027E0E120249
:1000EF002E12024F8008AF19740EFE12022E90606E
:0400FF00007420F079
:10010300D007D006D005D004D003D002D001D00050
:0B011300D0D0D082D083D0F0D0E032FA
:10024F0012038EEF24C0FD131313541F25E025E076
:0F025F002408F8ED540328F8E6FD7F0102020D94
:10026E000500752340752400E50025E044FD852436
:0D027E0082852383F0AF007408FE02022E7B
:07039D007F057E0A02022E1B
:0703A4000000000000002230
:0F000300D2901203A4C2911203A4C2900203A4CC
:10033200C2911203A4D2901203A4D2911203A4C2B6
:04034200900203A47E
:10035900D2901203A4A29192010000C2901203A4A8
:02036900A201EF
:01036B00226F
:100307007E08EF339291EF25E0FF120359DEF3D217
:0503170091120359B32F
:01031C0022BE
:10036C00E4FF7E08EF25E0FF12035950010FDEF485
:01037C00225E
:0201E600AD0763
:1001E8001200037FA0120307501AAF05120307502D
:1001F800131200037FA1120307500912036C1203A4
:04020800321203A407
:01020C0022CF
:10020D00AC071200037FA01203075014AF041203B2
:10021D0007500DAF0512030750061203321203A447
:01022D0022AE
:10031D00D291D29000000000C29100000000C29066
:05032D000000000022A9
:1002A800C29100000000D29000000000D29100002E
:0902B8000000D2910000000022B8
:10016B00E4FEEF30E704D2918002C2910000000060
:10017B00D290EF25E0FF0000000000000000C290CD
:10018B00000000000EBE08DAD291D29100000000F0
:10019B00D2900000000000000000C29000000000A0
:0101AB002231
:1001AC00D291D291E4FFFED290000000000000003A
:1001BC0000EF25E0FF3091010FC290000000000E0F
:1001CC00BE08E4D29100000000D2900000000000B4
:0901DC00000000C29000000000C8
:0101E50022F7
:10022E00AD07AC0612031DED7807CEC313CE13D85F
:10023E00F9543E4460FF12016BAF0512016B0202CE
:01024E00A807
:0E038E0012031D7F6F12016B1201AC1202A848
:01039C00223E
:10037D003F065B4F666D7D077F6F777C395E7971C8
:01038D00006F
:10028B00D3EF9400EE940040137D057CC8AB041CA7
:0C029B00EB70FADDF6EF1F70E71E80E448
:0102A7002234
:0202DA00A90772
:1002DC00E9D39400400E7A057FC87E0012028BDAB7
:0402EC00F71980EC92
:0102F00022EB
:10011E0075234075240085248285238374FEF01296
:10012E0002C17F011201E68F18E51875F00A84AF3F
:10013E00F07408FE12022EE51875F00A8475F00AA6
:10014E0084AFF07409FE12022EE51875F06484FF78
:0D015E00740AFE12022E7F011202DA80C523
:1002C100D2AA7597011202F17F037E0412022E7FDA
:0902D100807E0512022ED2AF223C
:1000220002011EE493A3F8E493A34003F68001F2D5
:1000320008DFF48029E493A3F85407240CC8C333DF
:10004200C4540F4420C8834004F456800146F6DFAE
:10005200E4800B0102040810204080900346E47EF5
:10006200019360BCA3FF543F30E509541FFEE493A3
:10007200A360010ECF54C025E060A840B8E493A36A
:10008200FAE493A3F8E493A3C8C582C8CAC583CA95
:10009200F0A3C8C582C8CAC583CADFE9DEE780BE4D
:0103580000A4
:00000001FF
