:03000000020016E5
:0C001600787FE4F6D8FD75812302005DC0
:1002590010080F0E0D0C0B0A090807060504030206
:02026900010092
:1002A8009060007413F0A37408F07401F0E4F09007
:0602B80060007420F0223A
:030013000200A246
:1000A200C0E0C0F0C083C082C0D075D000C000C024
:0D00B20001C002C003C004C005C006C007A5
:1000BF00906000E0F523E0F523532307E523146058
:1000CF00131460162402701E7F007E0F1201DD12C2
:1000DF00023C801A7F017E0F80117F027E0F12017A
:1000EF00DD1201FE8008AF23740FFE1201DD906058
:0400FF00007420F079
:10010300D007D006D005D004D003D002D001D00050
:0B011300D0D0D082D083D0F0D0E032FA
:1001FE00120003EF24C0FF131313541F25E025E054
:10020E002408F8EF540328F8E6FF7408FE0201DD17
:10023C000518752040752100E51825E044FD852141
:0D024C0082852083F0AF187408FE0201DDEA
:0702D3007F057E0A0201DD38
:1002BE00D291D29000000000C29100000000C290C6
:0502CE00000000002209
:10027600C29100000000D29000000000D291000060
:090286000000D2910000000022EA
:10011E00E4FEEF30E704D2918002C29100000000AD
:10012E00D290EF25E0FF0000000000000000C2901A
:10013E00000000000EBE08DAD291D291000000003D
:10014E00D2900000000000000000C29000000000ED
:01015E00227E
:10019F00D291D291E4FFFED2900000000000000047
:1001AF0000EF25E0FF3091010FC29000000000002A
:1001BF000000000EBE08E0D29100000000D29000B7
:0D01CF0000000000000000C29000000000D1
:0101DC002200
:1001DD00AD07AC061202BEED7807CEC313CE13D811
:1001ED00F9543E4460FF12011EAF0512011E0202BA
:0101FD00768B
:0E0003001202BE7F6F12011E12019F120276C2
:0100110022CC
:0A026B000818000000000000000069
:10021E00E4F52212028F752040752100852182851A
:0E022E002083747FF07F007E081201DD80FEC9
:10028F00D2AA7597011202A87F037E041201DD7FA7
:09029F00807E051201DDD2AF22C0
:10015F00AF187408FE1201DDAF197409FE1201DD2C
:10016F00AF1A740AFE1201DDAF1B740BFE1201DD14
:10017F00AF1C740CFE1201DDAF1D740DFE1201DDFC
:10018F00AF1E740EFE1201DDAF1F740FFE0201DDF4
:1000220002021EE493A3F8E493A34003F68001F2D4
:1000320008DFF48029E493A3F85407240CC8C333DF
:10004200C4540F4420C8834004F456800146F6DFAE
:10005200E4800B0102040810204080900259E47EE3
:10006200019360BCA3FF543F30E509541FFEE493A3
:10007200A360010ECF54C025E060A840B8E493A36A
:10008200FAE493A3F8E493A3C8C582C8CAC583CA95
:10009200F0A3C8C582C8CAC583CADFE9DEE780BE4D
:010275000088
:00000001FF
