:100B640010333738392B3435362D3132332A302E81
:020B74003D2F13
:100C8D009060007413F0A37408F07401F0E4F09018
:060C9D0060007420F0224B
:030013000208D50B
:1008D500C0E0C0F0C083C082C0D075D000C000C0E9
:0D08E50001C002C003C004C005C006C0076A
:1008F200906000E0E0FF530707EF24FE7003120947
:070902006D9060007420F00D
:10090900D007D006D005D004D003D002D001D00042
:0B091900D0D0D082D083D0F0D0E032EC
:10096D00120DA6EF24C0FF131313541FFEC37403FF
:10097D009E25E025E02433F8EF5403FFC374039F55
:10098D0028F8E6FFBF3014E52D70047F0180027F4B
:0B099D00008F2DE52DB4010375300123
:0109A800222C
:070DCC0000000000000022FE
:0F000300D290120DCCC291120DCCC290020DCC36
:100D3B00C291120DCCD290120DCCD291120DCCC20D
:040D4B0090020DCC39
:100D4F00D290120DCCA29192000000C290120DCC45
:020D5F00A200F0
:010D6100226F
:100CA3007E08EF339291EF25E0FF120D4FDEF3D272
:050CB30091120D4FB38A
:010CB8002219
:100D7500E4FF7E08EF25E0FF120D4F50010FDEF472
:010D8500224B
:020B8D00AD07B2
:100B8F001200037FA0120CA3501AAF05120CA35032
:100B9F00131200037FA1120CA35009120D75120D31
:040BAF003B120DCC1C
:010BB300221F
:100BD700AC071200037FA0120CA35014AF04120C31
:100BE700A3500DAF05120CA35006120D3B120DCCEE
:010BF70022DB
:0F0D9700D291D2900000C2910000C290000022C1
:100D8600C2910000D2900000D2910000D2910000E2
:010D9600223A
:100B0700E4FEEF30E704D2918002C2910000D29058
:100B1700EF25E0FF00000000C29000000EBE08E2D3
:100B2700D291D2910000D29000000000C290000044
:010B3700229B
:100B3800D291D291E4FFFED29000000000EF25E0B0
:100B4800FF3091010FC29000000EBE08EAD291005A
:0B0B580000D29000000000C2900000DE
:010B6300226F
:100BF800AD07AC06120D97ED7807CEC313CE13D808
:100C0800F9543E4460FF120B07AF05120B07020DA3
:010C18008655
:0E0DA600120D977F6F120B07120B38120D867D
:010DB400221C
:0B0CB9007E00120CC4D2B47F027E004B
:0B0CC400EF1FAC0670011E4C70F62202
:100BB400120CBEC2B47F587E02120CC4D2B47F3C65
:100BC4007E00120CC4A2B492007FF47E01120CC405
:020BD400A2007D
:010BD60022FC
:100C3A00120CBEC2B4120CC0300004A20092B47FDF
:0F0C4A005A7E00120CC4D2B47F027E00020CC48A
:020C7400AD07CA
:100C7600E4FBED13E433FA24FF9200120C3AEDC3C1
:060C860013FD0BBB08EC9E
:010C8C002245
:100CCF00120CBEC2B47F02120CB9A2B492007F5AAA
:050CDF00120CB9A20097
:010CE40022ED
:100CE500E4FDFBEDC313FD120CCF50034305800B50
:050CF500BB08F0AF0593
:010CFA0022D7
:100D6200B5B1C7B0CEC2B6C83A00A1E60032300073
:030D72003330001B
:100B7600022E400002212000062400000000000092
:060B8600012D0001320AFE
:100A2100120924E52AB40110120821E52D700312E0
:100A310007B7E4F52A12087DE530B401E60532E591
:100A410032B4780375320AAD2CAF32120BD7E52DD3
:0B0A5100B40103120425E4F53080C856
:10092400120BB440FB120C59120ACFE4FD7F0A12D9
:100934000BD77F037E04120BF87F807E05120BF821
:10094400120C8D758910758D3C758BB0D2B58522CE
:10095400828521837480F0852F82852E8374FFF035
:09096400D2AAD2ABD2AFD28E228E
:03001B00020A9640
:100A9600C0E0C0F0C0D0C28EE52B0475F01484858A
:100AA600F02BE52B7014752A01E5310475F00A84E4
:100AB60085F031E5317003753001758D3C758BB06D
:090AC600D28ED0D0D0F0D0E03285
:10082100120BB4B3502F7FCC120C747F44120C7492
:10083100120CCFB340FA120BB4B350197FCC120C87
:10084100747FBE120C74120CE58F08120CE58F092F
:10085100120BB440FBE509C454F0FFE508C4540F82
:100861004FF52CE508540FFCE4120337E4FBFA7949
:0B087100C8784012022712036B8F238F
:01087C002259
:1007B700E52C75F00A842430F524E52C75F00A84BD
:1007C700E5F02430F52575262EE52375F00A8424F7
:1007D70030F527E52375F00A84E5F02430F5287F06
:1007E70030120D2B7F01120D2B7F027E00120C1988
:1007F7007BFF7A0D7962E4FDFCFF1209E57B007A45
:10080700007924E4FDFC7F0AFE120A5C7BFF7A0D67
:0A081700796CE4FDFC7F0D0209E599
:10042500120ACF120529853208750911AF08120B7A
:100435008D8F0A1508E508640A6048850A0BAF0820
:10044500120B8D8F0A7E007C007D03120405C37498
:10045500649FF582E49EF583AF0B7E00120405C30D
:1004650074649FF513E49EF512E5092401FFE43356
:10047500FEE509FB7A00AD82AC8312001E15080566
:100485000980B27F0A120B8DEF7003020528850AD9
:100495000BAF08120B8D8F0A7E007C007D031204C2
:1004A50005C374649FF582E49EF583AF0B7E00124D
:1004B5000405C374649FF513E49EF512E509240150
:1004C500FFE433FEE509FB7A00AD82AC8312001E22
:1004D5000509750877E50865326048850A0BAF0898
:1004E500120B8D8F0A7E007C007D03120405C374F8
:1004F500649FF582E49EF583AF0B7E00120405C36D
:1005050074649FF513E49EF512E5092401FFE433B5
:10051500FEE509FB7A00AD82AC8312001E150805C5
:030525000980B298
:0105280022B0
:100529007512007513327B7E7A007D327C007F1054
:100539007E0012001EE4F512F5137B10FA7D32FCE1
:100549007F10FE12001E7D287C007F117E0012059F
:10055900ED7D227C007F117E001205ED7D1C7C0063
:100569007F117E001205ED7D167C007F117E001241
:1005790005ED7D107C007F117E001205ED7D0A7C62
:10058900007F117E001205ED7D317C007F247E0005
:100599001205ED7D317C007F387E001205ED7D313D
:1005A9007C007F4C7E001205ED7D317C007F607EF2
:1005B900001205ED7D317C007F747E001205ED7B14
:1005C900FF7A0D796FE4FDFC7F08FE120A5C7BFF60
:0C05D9007A0D7972E4FDFCFFFE020A5C62
:10087D00E52CC3941E5007E52CC39414501E750827
:10088D0064AF081508EF603FC2B57F647E00120C9F
:10089D00C4D2B57F647E00120CC480E5E52CC394F0
:1008AD00195012852282852183E4F0852F82852EB1
:1008BD008374AAF0228522828521837480F0852F8E
:0708CD0082852E837455F0B3
:0108D4002201
:080DC300E4FF00000FBF0BFA72
:010DCB002205
:100C1900E4FDFCC3ED9FEC9E5016E4FBFA000BBB10
:100C290000010AEB646D4A70F40DBD00010C80E30C
:010C39002298
:100D1100901200E0FFC41313135401FE640160F349
:040D2100EF547FFF0D
:010D250022AB
:050D2600E51D4480FF03
:020D2B00AD0712
:0D0D2D007B007A10120D118B828A83EDF08D
:010D3A002296
:060CFB0014F91203ECFFE6
:020D0100AD073C
:0D0D03007B007A11120D118B828A83EDF0B6
:010D100022C0
:0D0DB5007D007C13120D118D828C83E0FFF8
:010DC200220E
:100C59007F30120D2B7F0C120D2B7F06120D2B7F6F
:0B0C690001120D2B7F027E00020C190F
:100ACF007F01120D2B7F027E00120C197F34120D45
:100ADF002BE4FCEC4480FF120D2B7F80120D2BE4D6
:100AEF00F9E4FF120D01E4FF120D0109B910F20C28
:080AFF00BC20E07F30020D2B4A
:0A09A9008E4E8F4F8B508A518952F9
:1009B3007F40120D2BE4F553E54FAE4E7805C3335C
:1009C300CE33CED8F9FFC3E5539FE49E5013AB500B
:1009D3000552E552AA5170020551120CFB055380D2
:0109E300D73C
:0109E40022F0
:060A5C008B0C8A0D890ECF
:100A6200EDC4F8540FC868FDECC454F048FCEF2400
:100A720080FFEF4DFF120D2BAB0CAA0DA90E120336
:100A8200ECD39400400D050EE50E7002050D120C1C
:030A9200FB80E501
:010A9500223E
:0809E5008F088B098A0A890BB7
:1009ED00EDC4F8540FC868FDECC454F048FCEF2476
:1009FD0080FFEF4DFF120D2BAB09AA0AA90B1203B5
:100A0D00ECD39400400D050BE50B7002050A120C9A
:030A1D00FB80E576
:010A200022B3
:0A069E008F438C448D458A468B473C
:1006A8007F34120D2B7F36120D2B85454DE54525E0
:1006B80049FFE5443548FEC3E54D9FEE6480F87474
:1006C8008098505AE54DC39420E54D500A4480FF68
:1006D800120D2BE543800C24E04480FF120D2BE51E
:1006E8004324084480FF120D2BE4FCECC39547E536
:1006F800466480F87480985021AB4A054CE54CAAB2
:100708004B7002054B120CFBAB4A054CE54CAA4B4F
:100718007002054B120CFB0C80D1054D808F7F3089
:03072800020D2B94
:0805E500AD0FAC0EAF0DAE0C22
:0805ED008E1A8F1B8C1C8D1D62
:1005F5007F34120D2B7F36120D2BC3E51D9420E59C
:100605001C64809480401774E0251DF51D74FF352A
:100615001CF51C7480251BF51BE4351AF51A120D03
:1006250026E51AC4F854F0C868F51EE51BC4540F36
:1006350048F51F4480FF120D2B751E80751F00E5C0
:100645001B540FFFE51FAE1EA807088005CEC31378
:10065500CE13D8F9F51F8E1E120DB5A907120DB5CB
:10066500AD07E51E4DF9120DB5EF451FFCE51AC4A2
:10067500F854F0C868F51EE51BC4540F48F51F1261
:100685000D26E51F4480FF120D2BAF01120D01AFA2
:0906950004120D017F30020D2B4F
:0C001E008E0C8F0D8C0E8D0F8A108B1134
:10002A00E4F518F519D3E50F9513E5126480F8E5A0
:10003A000E648098401885100C85110D8E108F1152
:10004A00AE0EAF0F85120E85130F8E128F13120587
:10005A00E5C3E511950DF515E510950CF514C3E505
:10006A0013950FF517E512950EF516C3E51464807E
:10007A009480500302014FD3E5179515E514648067
:10008A00F8E5166480984059C3E50F9513E51264A4
:10009A0080F8E50E6480984003020226C3E51864DE
:1000AA008094805022050DE50D7002050C050FE5C0
:1000BA000F7002050EE5192517CFE5183516CFC3BF
:1000CA009515F519EF8011050FE50F7002050EC39E
:1000DA00E5199515F519E5189514F5181205E58031
:1000EA00A7E51745167008E50F150F7002150EC320
:1000FA00E50D9511E50C95104003020226C3E5189B
:10010A00648094805016050DE50D7002050CE51704
:10011A002519F519E5163518F5188024050FE50F88
:10012A007002050E050DE50D7002050CE51925177F
:10013A00CFE5183516CFC39515F519EF9514F518AF
:10014A001205E580AAC3E50D9511F515E50C951084
:10015A00F514D3E5179515E5146480F8E51664805F
:10016A00984059C3E50F9513E5126480F8E50E64CB
:10017A0080984003020226C3E518648094805022C6
:10018A00E50D150D7002150C050FE50F7002050E31
:10019A00E5192517CFE5183516CFC39515F519EFCB
:1001AA008011050FE50F7002050EC3E5199515F5C7
:1001BA0019E5189514F5181205E580A7E5174516EF
:1001CA007008E50F150F7002150ED3E50D9511E5B0
:1001DA000C95104047E518648094805016E50D157B
:1001EA000D7002150CE5172519F519E5163518F5E0
:1001FA00188024E50D150D7002150C050FE50F701A
:10020A0002050EE5192517CFE5183516CFC3951542
:0C021A00F519EF9514F5181205E580AEFB
:0102260022B5
:0300000002072BC9
:0C072B00787FE4F6D8FD75815302077258
:10022700EC4D6011E8497017ED33EC3304600DE4D1
:10023700FCFFFEFD22E933E8330470F80203D7120E
:1002470003A258046009E4CC24815006285009020F
:1002570003E12840030203DEC0E0EB4A7044B980A3
:1002670006D0E0FB0203CDEF4E701CBD8008EBFF0C
:10027700EAFEE9FD80EBE98DF0A4FEE5F00203104C
:10028700E9CDF9EAFEEBFFEF89F0A4FCE5F0CE89B2
:10029700F0A42EFFE435F0CD89F0A42DFEE435F06F
:1002A7008067EF4E7005BD80D780C3EF8BF0A4AC9D
:1002B700F0EE8BF0A42CFCE435F0F8EF8AF0A42CD8
:1002C700E5F038FCE433CB8DF0A42CFCE5F03BF8EB
:1002D700EE8AF0A42CFCE5F038F8E433CF89F0A4DB
:1002E7002CFCE5F038CF3400CE89F0A42FFFE5F0E1
:1002F7003EFEE433C98DF0A42EFEE5F039CD8AF039
:10030700A42FFFE5F03EFEE43DFD33D0E0FB5007B0
:100317000BBB000F0203E1EC2CFCEF33FFEE33FEC7
:06032700ED33FD0203B9F5
:10032D0075F020800E75F010800575F0087D007E4B
:10033D00007F003392D530D503120417EC334010F3
:10034D00EF33FFEE33FEED33FDEC33FCD5F0ED2254
:0E035D00E5F0247EA2D513CC92E7CDCEFF2290
:10036B00EDD2E7CD33EC3392D524814006E4FFFE8A
:10037B00FDFC22FCE4CFCECDCC24E0501174FF80E9
:10038B00EDC3CC13CCCD13CDCE13CECF13CF047086
:07039B00F030D5DE0204176B
:1003A200E9D2E7C933E833F892D5EDD2E7CD33ECA1
:0703B20033FC5002B2D5221A
:1003B900EC30E7100FBF000C0EBE00080DBD0004A5
:1003C9000BEB6014A2D5EB13FCED92E7FD2274FF51
:1003D900FCFDFEFF22E480F8A2D574FF13FC7D80AA
:0303E900E480EFBE
:10073700020A21E493A3F8E493A34003F68001F2AD
:1007470008DFF48029E493A3F85407240CC8C333C3
:10075700C4540F4420C8834004F456800146F6DF92
:10076700E4800B0102040810204080900B64E47EB3
:10077700019360BCA3FF543F30E509541FFEE49387
:10078700A360010ECF54C025E060A840B8E493A34E
:10079700FAE493A3F8E493A3C8C582C8CAC583CA79
:1007A700F0A3C8C582C8CAC583CADFE9DEE780BE31
:010B8C000068
:1003EC00BB010689828A83E0225002E722BBFE020F
:0903FC00E32289828A83E4932242
:10040500EF8DF0A4A8F0CF8CF0A428CE8DF0A42E0B
:02041500FE22C5
:0E041700C3E49FFFE49EFEE49DFDE49CFC22F6
:00000001FF
