:030000000204CB2C
:0C04CB00787FE4F6D8FD7581240201D48E
:1002C9001417191B1E20222325262728282828270A
:1002D90026252322201E1B191714110F0D0A0806A3
:1002E90005030201000000000102030506080A0DCA
:0A02F9000F110000000000000000DB
:10039D008F158D161204D77F9012043C5014E5155D
:1003AD005477FF12043C500AAF1612043C5003124E
:0303BD00046722B0
:02033D008F1718
:10033F00E4F518F5191204D77F9012043C5025AF3D
:10034F001712043C501E1204D77F9112043C501414
:10035F001204C41204C412048E8F181204AE1204B5
:06036F0067AF1822AF1871
:010375002265
:020243008F1A10
:10024500E4F51BF51C1204D77F9012043C5033AF24
:100255001A12043C502C1204D77F9112043C5022F0
:10026500E51CC3940450181204C41204C412048E6D
:10027500AE1C051C74212EF8A6071204AE80E112EF
:0202850004670C
:010287002254
:1001D40078087C007D007BFF7A0279FB7E007F0833
:1001E4001200D3751101E4F513F5147F32FE1203E6
:1001F400C4E4F510E510C3943250F62096151203AA
:10020400C03096FD1203C00511E511D394054003D7
:10021400751101E5109002C993FD7F4012039D20E2
:1002240095151203C03095FD1203C02095FD1203ED
:0F023400C03095FD1203C0E5112510F51080B5FF
:10013F008B1D8A1E891F1200F9FF7408FE1203E13E
:10014F00AB1DAA1EA91F900001120112FF7409FE18
:10015F001203E1AB1DAA1EA91F900002120112FF8C
:10016F00740AFE1203E1AB1DAA1EA91F9000031211
:10017F000112FF740BFE1203E1AB1DAA1EA91F9003
:10018F000004120112FF740CFE1203E1AB1DAA1E34
:10019F00A91F900005120112FF740DFE1203E1ABAF
:1001AF001DAA1EA91F900006120112FF740EFE1247
:1001BF0003E1AB1DAA1EA91F900007120112FF74C5
:0501CF000FFE0203E138
:0403C0007F037E0039
:1003C400D3EF9400EE940040137D057C64AB041CD1
:0C03D400EB70FADDF6EF1F70E71E80E40E
:0103E00022FA
:10045200D291D29000000000C29100000000C29030
:05046200000000002273
:10042300C29100000000D29000000000D2910000B1
:090433000000D29100000000223B
:10028800E4FEEF30E704D2918002C2910000000042
:10029800D290EF25E0FF0000000000000000C290AF
:1002A800000000000EBE08DAD291D29100000000D2
:1002B800D2900000000000000000C2900000000082
:0102C8002213
:10030300D291D291E4FFFED29000000000000000E1
:1003130000EF25E0FF3091010FC290000000000EB6
:10032300BE08E4D29100000000D29000000000005B
:09033300000000C290000000006F
:01033C00229E
:1003E100AD07AC06120452ED7807CEC313CE13D875
:1003F100F9543E4460FF120288AF051202880204DC
:0104010023D7
:0E049F001204527F6F1202881203031204230C
:0104AD00222C
:0704BD00D2901204C4C291A9
:0704C400000000000000220F
:0804D7001204BDC2900204C42E
:10046700C2911204C4D2901204C4D2911204C4C21D
:04047700900204C427
:10047B00D2901204C4A29192010000C2901204C443
:02048B00A201CC
:01048D00224C
:0F04AE00D2911204BDC2901204C4D290D29122F6
:10043C007E08EF339291EF25E0FF12047BDEF3D2BE
:05044C009112047BB3D6
:010451002288
:10048E00E4FF7E08EF25E0FF12047B50010FDEF43F
:01049E00223B
:02037600AD07D1
:100378001204D77FA012043C501AAF0512043C5057
:10038800131204D77FA112043C500912048E1204E0
:04039800671204C420
:01039C00223E
:10040200AC071204D77FA012043C5014AF041204AC
:100412003C500DAF0512043C50061204671204C48E
:0104220022B7
:10000300E709F608DFFA8046E709F208DFFA803EDF
:1000130088828C83E709F0A3DFFA8032E309F608CC
:10002300DFFA8078E309F208DFFA807088828C8334
:10003300E309F0A3DFFA806489828A83E0A3F608E8
:10004300DFFA805889828A83E0A3F208DFFA804CC2
:1000530080D280FA80C680D4806980F28033801099
:1000630080A680EA809A80A880DA80E280CA803302
:1000730089828A83ECFAE493A3C8C582C8CCC5837A
:10008300CCF0A3C8C582C8CCC583CCDFE9DEE7804A
:100093000D89828A83E493A3F608DFF9ECFAA9F0C9
:1000A300EDFB2289828A83ECFAE0A3C8C582C8CC1F
:1000B300C583CCF0A3C8C582C8CCC583CCDFEADE38
:1000C300E880DB89828A83E493A3F208DFF980CC9A
:1000D30088F0EF60010E4E60C388F0ED2402B40493
:1000E3000050B9F582EB2402B4040050AF2323453A
:0600F3008223900053730C
:1000F900BB010689828A83E0225002E722BBFE0205
:09010900E32289828A83E4932237
:10011200BB010CE58229F582E5833AF583E02250A2
:1001220006E92582F8E622BBFE06E92582F8E222EC
:0D013200E58229F582E5833AF583E4932206
:00000001FF
