:03000000020016E5
:0C001600787FE4F6D8FD75813602005DAD
:0D031B009060007413F0A3E4F07407F0226A
:0F02FD00D291D2900000C2910000C29000002266
:1002DC00C2910000D2900000D2910000D291000097
:0102EC0022EF
:1001AF00E4FEEF30E704D2918002C2910000D290BA
:1001BF00EF25E0FF00000000C29000000EBE08E235
:1001CF00D291D2910000D29000000000C2900000A6
:0101DF0022FD
:1001E000D291D291E4FFFED29000000000EF25E012
:1001F000FF3091010FC290000000000EBE08E8D24F
:0E020000910000D29000000000C29000002289
:10028200AD07AC061202FDED7807CEC313CE13D82C
:10029200F9543E4460FF1201AFAF051201AF0202F2
:0102A200DC7F
:0F030C001202FD7F6F1201AF1201E01202DC221C
:1002ED001514131211100908070605040302010065
:10025E00023100001021080009000A000B000C00FA
:10026E000D000E000F0008190000800080008000B5
:03027E0001180064
:10023700E4FDFCE4FBFAC3EB9FEE6480F8EA64801C
:10024700985008000BBB00010A80EB0DBD00010CA4
:07025700ED640A4C70DD228A
:1002C3009060007413F0A3E4F07407F0758902756D
:0902D3008C06758A0675A88622C6
:1001230012030CEF5407FEEF131313540725E025B6
:10013300E024EDF582E43402F583E5822EF582E4D2
:100143003583F583E49360171470270518E518B415
:100153000102D28CE51864027018C28CF51822C211
:100163008CE4FF74192FF8E65480F60FBF08F4E40B
:03017300F518225A
:0300130002020ED8
:10020E00C0E0C0F0C083C082C0D075D010C2AF9025
:10021E006001E0E0FF24FE7003120123D2AFD0D0C4
:09022E00D082D083D0F0D0E03280
:1002A300D291D2907F017E021202827F1E7E0012C3
:1002B30002377F807E051202827F037E0402028260
:100176001202C31202A3E4F533F534AF3474192F17
:10018600F8E6FDEF25E02421F8E6FE08E6FFED4F50
:10019600FF1202820534E53470020533C39408E584
:0901A600336480948040D480CDC4
:03000B000200A24E
:1000A200C0E0C0D075D0080532E532700205316477
:1000B2002845317067F531F5320519E519D39409F0
:1000C200405A051A751900E51AD39409404E051BCA
:1000D200751A00E51B547FD394094040051C751B1B
:1000E20080E51CD394054034051D751C00E51D54A4
:1000F2007FD394094026051E751D80E51ED3940505
:10010200401A051F751E00E51F547FD39409400C49
:100112000520751F80E520B402028000D0D0D0E017
:0101220032AA
:10002200020176E493A3F8E493A34003F68001F27D
:1000320008DFF48029E493A3F85407240CC8C333DF
:10004200C4540F4420C8834004F456800146F6DFAE
:10005200E4800B010204081020408090025EE47EDE
:10006200019360BCA3FF543F30E509541FFEE493A3
:10007200A360010ECF54C025E060A840B8E493A36A
:10008200FAE493A3F8E493A3C8C582C8CAC583CA95
:10009200F0A3C8C582C8CAC583CADFE9DEE780BE4D
:01028100007C
:00000001FF
