:030000000208757E
:0C087500787FE4F6D8FD75812402030FA3
:1007FC00D291D29000000000C29100000000C29083
:05080C000000000022C5
:1007B600C29100000000D29000000000D29100001B
:0907C6000000D2910000000022A5
:10064D00E4FEEF30E704D2918002C2910000000079
:10065D00D290EF25E0FF0000000000000000C290E6
:10066D00000000000EBE08DAD291D2910000000009
:10067D00D2900000000000000000C29000000000B9
:01068D00224A
:10068E00D291D291E4FFFED2900000000000000053
:10069E0000EF25E0FF3091010FC290000000000E28
:1006AE00BE08E4D29100000000D2900000000000CD
:0906BE00000000C29000000000E1
:0106C7002210
:10075300AD07AC061207FCED7807CEC313CE13D852
:10076300F9543E4460FF12064DAF0512064D0207D1
:01077300B6CF
:0E0849001207FC7F6F12064D12068E1207B6C4
:01085700227E
:07086700D29012086EC2914D
:07086E000000000000002261
:08088100120867C29002086E24
:10081100C29112086ED29012086ED29112086EC265
:040821009002086ECB
:10082500D29012086EA29192010000C29012086E39
:02083500A2011E
:01083700229E
:0F085800D291120867C29012086ED290D29122EC
:1007E6007E08EF339291EF25E0FF120825DEF3D263
:0507F60091120825B37B
:0107FB0022DB
:10083800E4FF7E08EF25E0FF12082550010FDEF4E3
:01084800228D
:02072C00AD0717
:10072E001208817FA01207E6501AAF051207E65095
:10073E00131208817FA11207E65009120838120819
:04074E001112086E0E
:010752002284
:10077400AC071208817FA01207E65014AF041207D9
:10078400E6500DAF051207E6500612081112086E66
:010794002242
:08088900000000000000000067
:100701008F1A8D1B1208817F901207E6501CE51A83
:100711005477FF1207E65012AF1B1207E6500B1277
:0B072100081100000000000000002292
:0206C8008F1A87
:1006CA00E4F51BF51C1208817F901207E65025AF4E
:1006DA001A1207E6501E1208817F911207E650147B
:1006EA0012086E12086E1208388F1B120858120868
:0606FA0011AF1B22AF1B33
:0107000022D6
:020608008F1D44
:10060A00E4F51EF51F1208817F901207E65033AFFA
:10061A001D1207E6502C1208817F911207E650221C
:10062A00E51FC39404501812086E12086E12083897
:10063A00AE1F051F74212EF8A60712085880E11272
:02064A00081195
:01064C00228B
:10030F00780B7C007D007BFF7A0879897E007F085F
:10031F00120261E4F5137F32FE1207997F037E0408
:10032F001207537F807E051207537B007A00790BEB
:10033F008B088A09890A1205737D787F401207019D
:10034F00E4F51420951D7F0A7E001207993095FD64
:10035F007F0A7E001207990513E513D39404400317
:10036F00E4F5137F0A7E001207990514E514C39470
:10037F009640D07F401206C87821A6077F4012060C
:10038F00C87821A6077F411206C87822A6077F41A9
:10039F001206C87822A6077F421206C87823A6073E
:1003AF007F421206C87823A6077F431206C8782417
:1003BF00A6077F431206C87824A607E513702D7889
:1003CF0021E6FCE41201137B2D7AB279CD783F122E
:1003DF0000038F198E188D178C167821E6F515AB43
:1003EF0008AA09A90A900003E402048FE513B401D7
:1003FF002D7822E6FCE41201137B2D7AB279CD78A9
:10040F003F1200038F198E188D178C167822E6F580
:10041F0015AB08AA09A90A90000374018062E513BD
:10042F00B4022D7823E6FCE41201137B2D7AB27906
:10043F00CD783F1200038F198E188D178C167823E5
:10044F00E6F515AB08AA09A90A90000374028030DB
:10045F00E513B4032E7824E6FCE41201137B2D7A06
:10046F00B279CD783F1200038F198E188D178C1625
:10047F007824E6F515AB08AA09A90A9000037403BE
:10048F001202DFE51575F00A84AB08AA09A90AE57F
:10049F00F01202CDE51575F00A8475F00A84AB08E9
:1004AF00AA09A90A900001E5F01202DFE51575F01F
:1004BF00648444809000021202DFE5136404600339
:1004CF0002055EAB08AA09A90A9000037404120280
:1004DF00DFE41202CDAB08AA09A90A9000011202AB
:1004EF00DF900002E41202DFE4FD7F4012070112E9
:1004FF00056D2095FD1207957D417F401207017410
:10050F00011205643095FD1207952095FD12079590
:10051F007D7F7F4012070174021205643095FD1232
:10052F0007952095FD1207957DFE7F40120701ABC1
:10053F0008AA09A90A740412056A3095FD120795D5
:10054F002095FD1207953095FD120795E4F51312CE
:05055F00056D020348D8
:0F056400AB08AA09A90A1202CDAB08AA09A90A75
:100573008B1A8A1B891C9000071202A0FF740FFEBE
:10058300120753AB1AAA1BA91C9000061202A0FF64
:10059300740EFE120753AB1AAA1BA91C9000051276
:1005A30002A0FF740DFE120753AB1AAA1BA91C90DD
:1005B30000041202A0FF740CFE120753AB1AAA1B0D
:1005C300A91C9000031202A0FF740BFE120753AB89
:1005D3001AAA1BA91C9000021202A0FF740AFE12A1
:1005E3000753AB1AAA1BA91C9000011202A0FF74A7
:1005F30009FE120753AB1AAA1BA91C120287FF7428
:0506030008FE02075390
:040795007F057E005E
:10079900D3EF9400EE940040137D057CC8AB041C94
:0C07A900EB70FADDF6EF1F70E71E80E435
:0107B5002221
:0207CF00A90778
:1007D100E9D39400400E7A057FC87E00120799DAAA
:0407E100F71980EC98
:0107E50022F1
:10000300EC4D6011E8497017ED33EC3304600DE4F7
:10001300FCFFFEFD22E933E8330470F802017C1291
:10002300014758046009E4CC248150062850090292
:100033000186284003020183C0E0EB4A7044B98083
:1000430006D0E0FB020172EF4E701CBD8008EBFF8F
:10005300EAFEE9FD80EBE98DF0A4FEE5F00200EC99
:10006300E9CDF9EAFEEBFFEF89F0A4FCE5F0CE89D8
:10007300F0A42EFFE435F0CD89F0A42DFEE435F095
:100083008067EF4E7005BD80D780C3EF8BF0A4ACC3
:10009300F0EE8BF0A42CFCE435F0F8EF8AF0A42CFE
:1000A300E5F038FCE433CB8DF0A42CFCE5F03BF811
:1000B300EE8AF0A42CFCE5F038F8E433CF89F0A401
:1000C3002CFCE5F038CF3400CE89F0A42FFFE5F007
:1000D3003EFEE433C98DF0A42EFEE5F039CD8AF05F
:1000E300A42FFFE5F03EFEE43DFD33D0E0FB5007D7
:1000F3000BBB000F020186EC2CFCEF33FFEE33FE4B
:06010300ED33FD02015E78
:1001090075F020800E75F010800575F0087D007E71
:10011900007F003392D530D503120301EC33401030
:10012900EF33FFEE33FEED33FDEC33FCD5F0ED227A
:0E013900E5F0247EA2D513CC92E7CDCEFF22B6
:10014700E9D2E7C933E833F892D5EDD2E7CD33ECFE
:0701570033FC5002B2D52277
:10015E00EC30E7100FBF000C0EBE00080DBD000402
:10016E000BEB6014A2D5EB13FCED92E7FD2274FFAE
:10017E00FCFDFEFF22E480F8A2D574FF13FC7D8007
:03018E00E480EF1B
:10019100E709F608DFFA8046E709F208DFFA803E50
:1001A10088828C83E709F0A3DFFA8032E309F6083D
:1001B100DFFA8078E309F208DFFA807088828C83A5
:1001C100E309F0A3DFFA806489828A83E0A3F60859
:1001D100DFFA805889828A83E0A3F208DFFA804C33
:1001E10080D280FA80C680D4806980F2803380100A
:1001F10080A680EA809A80A880DA80E280CA803373
:1002010089828A83ECFAE493A3C8C582C8CCC583EA
:10021100CCF0A3C8C582C8CCC583CCDFE9DEE780BA
:100221000D89828A83E493A3F608DFF9ECFAA9F039
:10023100EDFB2289828A83ECFAE0A3C8C582C8CC8F
:10024100C583CCF0A3C8C582C8CCC583CCDFEADEA8
:10025100E880DB89828A83E493A3F208DFF980CC0A
:1002610088F0EF60010E4E60C388F0ED2402B40403
:100271000050B9F582EB2402B4040050AF232345AA
:0602810082239001E173ED
:10028700BB010689828A83E0225002E722BBFE0275
:09029700E32289828A83E49322A8
:1002A000BB010CE58229F582E5833AF583E0225013
:1002B00006E92582F8E622BBFE06E92582F8E2225D
:0D02C000E58229F582E5833AF583E4932277
:1002CD00BB010689828A83F0225002F722BBFE0110
:0202DD00F3220A
:1002DF00F8BB010DE58229F582E5833AF583E8F055
:1002EF00225006E92582C8F622BBFE05E92582C801
:0202FF00F222E9
:0E030100C3E49FFFE49EFEE49DFDE49CFC220D
:00000001FF
