:0300000002000EED
:0C000E00787FE4F6D8FD758129020055CA
:10018400081507030B090D0C0E060820080A0206C1
:0D01940004050A09011400011F0A011000F2
:10009A00E4F528F5295389F0438901758CFC758AA2
:1000AA0018D2A9D2AFD28C751D40F51E751220F553
:1000BA0013851F11851E82851D83F0209515120157
:1000CA00633095FD120163051FE51FD394144003A5
:1000DA00751F142097151201633097FD12016315DD
:1000EA001FE51FC394035003751F032096CD120109
:0F00FA00633096FD1201636310FF751F0A80BC0F
:040163007F0A7E0091
:10016700D3EF9400EE940040137D057C14AB041C80
:0C017700EB70FADDF6EF1F70E71E80E46D
:010183002259
:03000B00020109E6
:10010900C0E0C083C082C0D075D008758CFC758AE8
:10011900181511E51164017038851F11741525141E
:10012900F8E6FF33333354F8851382851283F0E5FB
:100139001060100514D3E514648094884013751475
:1001490000800E1514C3E51464809480500375145F
:0A01590007D0D0D082D083D0E0326E
:10001A0002009AE493A3F8E493A34003F68001F262
:10002A0008DFF48029E493A3F85407240CC8C333E7
:10003A00C4540F4420C8834004F456800146F6DFB6
:10004A00E4800B0102040810204080900184E47EC1
:10005A00019360BCA3FF543F30E509541FFEE493AB
:10006A00A360010ECF54C025E060A840B8E493A372
:10007A00FAE493A3F8E493A3C8C582C8CAC583CA9D
:10008A00F0A3C8C582C8CAC583CADFE9DEE780BE55
:0101A100005D
:00000001FF
