:0607A20001140001150026
:100807009060007413F0A37408F07401F0E4F090A2
:0608170060007420F022D5
:0300130002057370
:10057300C0E0C0F0C083C082C0D075D000C000C04E
:0D05830001C002C003C004C005C006C007CF
:10059000906000E0E0FF530707EF700312000E9039
:0505A00060007420F072
:1005A500D007D006D005D004D003D002D001D000AA
:0B05B500D0D0D082D083D0F0D0E03254
:05000E00051405152298
:0700030000000000000022D4
:0F088D00D290120003C291120003C29002000326
:10083300C291120003D290120003D291120003C29C
:04084300900200031C
:10084700D290120003A29192010000C290120003FD
:02085700A201FC
:01085900227C
:10081D007E08EF339291EF25E0FF120847DEF3D209
:05082D0091120847B321
:0108320022A3
:10085A00E4FF7E08EF25E0FF12084750010FDEF49F
:01086A00226B
:02077B00AD07C8
:10077D0012088D7FA012081D501AAF0512081D50CA
:10078D001312088D7FA112081D500912085A120864
:04079D003312000310
:0107A1002235
:1007C500AC0712088D7FA012081D5014AF04120843
:1007D5001D500DAF0512081D5006120833120003F7
:0107E50022F1
:0F089C00D291D2900000C2910000C290000022C1
:10086B00C2910000D2900000D2910000D291000002
:01087B00225A
:1006F600E4FEEF30E704D2918002C2910000D2906E
:10070600EF25E0FF00000000C29000000EBE08E2E8
:10071600D291D2910000D29000000000C290000059
:0107260022B0
:10072700D291D291E4FFFED29000000000EF25E0C5
:10073700FF3091010FC29000000EBE08EAD291006F
:0B07470000D29000000000C2900000F3
:010752002284
:1007E600AD07AC0612089CED7807CEC313CE13D81E
:1007F600F9543E4460FF1206F6AF051206F60208EB
:010806006B86
:0E08AB0012089C7F6F1206F612072712086BC8
:0108B900221C
:030000000203CC2C
:0C03CC00787FE4F6D8FD75812002041350
:1007A800010800010900010A00010B00010C000109
:0C07B8000D00010E00010F00021207CF1F
:0D08BA007F3212087C1204B812064A80FE3C
:10087C00E4FDFC0DBD00010CBC03F8BDE8F5DFF098
:01088C002249
:1005C0007F007E051207E67F007E081207E67F00A7
:1005D0007E091207E67F007E0A1207E67F007E0B87
:1005E0001207E67F007E0C1207E67F007E0D1207E1
:1005F000E67F007E0E1207E67F007E0F1207E67F81
:06060000807E050207E602
:1004B800120688E50BD3940940047F0180027F006F
:1004C800E50BC3940050047E0180027E00EE4F606D
:1004D8003CE4FD7F711207C57F0212087CE4FD7FB2
:1004E800721207C57F0212087CE4FD7F731207C5EC
:1004F8007F0212087CE4FD7F741207C57F02120890
:0E0508007CE4FD7F751207C57F0212087C227D
:10064A007F037E041207E67F807E051207E6120505
:10065A00C07F0A12087C7F007E081207E61208078C
:10066A00758911758CF8758A30758DEC758B78D211
:0E067A008AD2AAD2A9D2ABD2AFD28CD28E2213
:03000B00020516D5
:10051600C0E0C0F0C083C082C0D075D000C000C0AB
:1005260001C002C003C004C005C006C007758CF830
:10053600758A300511E51170020510B4E814E5104E
:10054600B4030F7510007511001206C41207537517
:100556001400D007D006D005D004D003D002D001B5
:0D056600D000D0D0D082D083D0F0D0E032D1
:03001B0002045884
:10045800C0E0C0F0C083C082C0D075D000C000C06A
:1004680001C002C003C004C005C006C007758DECFA
:10047800758B780513E51370020512B4D017E512D1
:10048800B407127512007513001202E612068812DC
:100498000606751500D007D006D005D004D003D0C5
:1004A80002D001D000D0D0D082D083D0F0D0E032BA
:1006C400AC14E41201CE7B6D7A0979D9784012001A
:1006D4001EE4FBFAF97840120127120202EF75F0CA
:1006E4000A8485F008EF75F00A8475F00A8485F0B1
:0106F40009FC
:0106F50022E2
:10075300AF087408FE1207E6E5096006FF7409FE98
:1007630080127F007E051207E67F007E091207E6EE
:080773007F807E051207E622DB
:1002E600E51570030203CBFCE41201CE7BEB7A2604
:1002F60079F1783F12001E120202AB07AA06E50B3F
:100306002BFBE43AFA7C007D0AAF03FE1202838DD2
:100316000B7C007D0AAF03AE021202837C00EF2540
:100326000CFBEC3EFA7D0AAF03FE1202838D0C7CB9
:10033600007D0AAF03AE021202837C00EF250DFB9F
:10034600EC3EFA7D0AAF03FE1202838D0D7C007D22
:100356000AAF03AE021202837C00EF250EFBEC3ED1
:10036600FA7D0AAF03FE1202838D0E7C007D0AAF72
:1003760003AE021202837C00EF250FFBEC3EFAFE71
:10038600AF037D0A1202838D0FAD0B7F711207C575
:100396007F0212087CAD0C7F721207C57F0212081D
:1003A6007CAD0D7F731207C57F0212087CAD0E7FF0
:1003B600741207C57F0212087CAD0F7F751207C540
:0503C6007F0212087C1B
:0103CB00220F
:100688007F7112077B8F0B7F0112087C7F72120724
:100698007B8F0C7F0112087C7F7312077B8F0D7F85
:1006A8000112087C7F7412077B8F0E7F0112087C71
:0C06B8007F7512077B8F0F7F0102087C0A
:10060600AF0B740BFE1207E6E50C450D450E450FC4
:100616006008AF0C740CFE1207E6E50D450E450F9B
:100626006008AF0D740DFE1207E6E50E450F600873
:10063600AF0E740EFE1207E6E50F6007FF740FFE9D
:040646001207E6228F
:10001E00EC4D6011E8497017ED33EC3304600DE4DC
:10002E00FCFFFEFD22E933E8330470F802026E1283
:10003E00023958046009E4CC248150062850090284
:10004E000278284003020275C0E0EB4A7044B98082
:10005E0006D0E0FB020264EF4E701CBD8008EBFF81
:10006E00EAFEE9FD80EBE98DF0A4FEE5F002010762
:10007E00E9CDF9EAFEEBFFEF89F0A4FCE5F0CE89BD
:10008E00F0A42EFFE435F0CD89F0A42DFEE435F07A
:10009E008067EF4E7005BD80D780C3EF8BF0A4ACA8
:1000AE00F0EE8BF0A42CFCE435F0F8EF8AF0A42CE3
:1000BE00E5F038FCE433CB8DF0A42CFCE5F03BF8F6
:1000CE00EE8AF0A42CFCE5F038F8E433CF89F0A4E6
:1000DE002CFCE5F038CF3400CE89F0A42FFFE5F0EC
:1000EE003EFEE433C98DF0A42EFEE5F039CD8AF044
:1000FE00A42FFFE5F03EFEE43DFD33D0E0FB5007BC
:10010E000BBB000F020278EC2CFCEF33FFEE33FE3C
:06011E00ED33FD0202506A
:10012400020278EC5D046005E85904700302026E73
:10013400120239580460F6EC4860F2EC7004FDFEDB
:10014400FF22C860DB2481C85009C39860025006AE
:100154000202759850CAF582E9294B4A7005AB82B0
:1001640002026475F0007C1A7880C3EF9BEE9AED6E
:1001740099400DC3EF9BFFEE9AFEED99FDE842F026
:10018400DC23ACF0D0E0FFD0E0FED0E0FDAB822079
:10019400E7101BEB60BAEC2CFCEF33FFEE33FEED03
:1001A40033FD020250E803F830E705C0F075F000B3
:1001B400EF2FFFEE33FEED33FD40B830E7C280AAE7
:1001C40075F020800E75F010800575F0087D007EB6
:1001D400007F003392D530D5031202D8EC3340109F
:1001E400EF33FFEE33FEED33FDEC33FCD5F0ED22BF
:0E01F400E5F0247EA2D513CC92E7CDCEFF22FB
:10020200EDD2E7CD33EC3392D524814006E4FFFEF4
:10021200FDFC22FCE4CFCECDCC24E0501174FF8053
:10022200EDC3CC13CCCD13CDCE13CECF13CF0470F0
:07023200F030D5DE0202D816
:10023900E9D2E7C933E833F892D5EDD2E7CD33EC0B
:0702490033FC5002B2D52284
:10025000EC30E7100FBF000C0EBE00080DBD00040F
:100260000BEB6014A2D5EB13FCED92E7FD2274FFBB
:10027000FCFDFEFF22E480F8A2D574FF13FC7D8014
:03028000E480EF28
:1003D8000208BAE493A3F8E493A34003F68001F279
:1003E80008DFF48029E493A3F85407240CC8C33326
:1003F800C4540F4420C8834004F456800146F6DFF5
:10040800E4800B01020408102040809007A2E47EDB
:10041800019360BCA3FF543F30E509541FFEE493E9
:10042800A360010ECF54C025E060A840B8E493A3B0
:10043800FAE493A3F8E493A3C8C582C8CAC583CADB
:10044800F0A3C8C582C8CAC583CADFE9DEE780BE93
:0107C4000034
:10028300BC000BBE0029EF8DF084FFADF022E4CC5F
:10029300F875F008EF2FFFEE33FEEC33FCEE9DEC28
:1002A300984005FCEE9DFE0FD5F0E9E4CEFD22ED6E
:1002B300F8F5F0EE8420D21CFEADF075F008EF2FB8
:1002C300FFED33FD4007985006D5F0F222C398FDA9
:0502D3000FD5F0EA2246
:0E02D800C3E49FFFE49EFEE49DFDE49CFC2237
:00000001FF
