:030000000206B342
:0C06B300787FE4F6D8FD75812102000379
:0106BF000139
:10063000EF7F08A2E09291D290000000000000003D
:0F06400000C2900000000000000000C313DFE4C0
:01064F002288
:100650007F08C313A29192E7D2900000000000002F
:0F0660000000C2900000000000000000DFE4FF77
:01066F002268
:10054B00AE05C2940000000000000000C290000045
:10055B00000000000000D29400000000000000002A
:10056B00120630AF06120630D290000000000000D9
:0D057B000000C294000000000000000022FB
:10058800C2940000000000000000C29000000000BB
:1005980000000000D2940000000000000000EF44BA
:1005A80001FF120630120650D29000000000000031
:0C05B8000000C2940000000000000000E1
:0105C4002214
:100502007F80120588EF30E73FE4FD7F8E12054BB6
:100512007D107F8C12054B7D077F8812054B7D284D
:100522007F8612054B7D037F8A12054B7D227F84D5
:1005320012054B7D307F8212054B7D507F80120564
:080542004B7D807F8E12054BFA
:01054A00228E
:100303007F80120588EF5470C4540F75F00AA4FE61
:10031300EF540F2E1202CF7F82120588EF5470C460
:10032300540F75F00AA4FEEF540F2E900001120231
:10033300E17F84120588EF5470C4540F75F00AA44A
:10034300FEEF540F2E9000021202E17F8612058801
:10035300EF5470C4540F75F00AA4FEEF540F2E909F
:1003630000041202E17F8A120588EF5470C4540F0F
:1003730075F00AA4FEEF540F2E9000031202E17FE2
:1003830088120588EF5470C4540F75F00AA4FEEF69
:10039300540F2E9000051202E17F8C120588EF5452
:1003A30070C4540F75F00AA4FEEF540F2E9000068C
:0303B3000202E162
:10000300750AFF780B7C007D007BFF7A0679BF7E43
:10001300007F011202637F801205888F177F037EA2
:100023000412060F7F807E0512060F7B007A00798B
:100033000B1203B6750C00750D00750E0F12050239
:10004300E4F508F5092095147F057E00120670304B
:1000530095FD7F057E00120670630AFF7F027E0016
:100063001206700509E50970020508C394C8E5087E
:100073006480948040CFE50A700302010B7F8012F5
:1000830005888F16E516540FAB0CAA0DA90E1202A4
:10009300CFE516C4540FAB0CAA0DA90E90000112A4
:1000A30002E17F821205888F16E516540F4480AB58
:1000B3000CAA0DA90E9000021202E1E516C4540F1A
:1000C3009000031202E17F841205888F16E516540F
:1000D3000F4480AB0CAA0DA90E9000041202E1E5B7
:1000E30016C4540F9000051202E17F8A1205888F0F
:1000F30016AB0CAA0DA90E90000674121202E1E5CC
:1001030016540F90000780797F861205888F16E5B5
:1001130016540FAB0CAA0DA90E1202CFE516C45448
:100123000FAB0CAA0DA90E9000011202E17F8812F9
:1001330005888F16E516540F4480AB0CAA0DA90E43
:100143009000021202E1E516C4540F90000312025C
:10015300E17F8C1205888F16E516540F4480AB0C93
:10016300AA0DA90E9000041202E1E516C4540F90E3
:1001730000051202E1900006E41202E19000077408
:10018300021202E1AB0CAA0DA90E1203B602004340
:1003B6008B188A19891A9000071202A2FF740FFE81
:1003C60012060FAB18AA19A91A9000061202A2FF6C
:1003D600740EFE12060FAB18AA19A91A9000051280
:1003E60002A2FF740DFE12060FAB18AA19A91A90E5
:1003F60000041202A2FF740CFE12060FAB18AA1913
:10040600A91A9000031202A2FF740BFE12060FAB8C
:1004160018AA19A91A9000021202A2FF740AFE1263
:10042600060FAB18AA19A91A9000011202A2FF74AE
:1004360009FE12060FAB18AA19A91A120289FF742F
:0504460008FE02060F94
:10067000D3EF9400EE940040137D057CC8AB041CBE
:0C068000EB70FADDF6EF1F70E71E80E45F
:01068C00224B
:02068D00A907BB
:10068F00E9D39400400E7A057FC87E00120670DA17
:04069F00F71980ECDB
:0106A3002234
:1005EE00D291D2900000000000000000C2910000E5
:1005FE00000000000000C29000000000000000009B
:01060E0022C9
:1005C500C2910000000000000000D2900000000071
:1005D50000000000D2910000000000000000D29150
:0905E500000000000000000022EB
:10044B00E4FEEF30E704D2918002C291000000007D
:10045B0000000000D290EF25E0FF0000000000003C
:10046B0000000000000000000000C290000000002F
:10047B00000000000EBE08CAD291D291000000000D
:10048B0000000000D29000000000000000000000FF
:10049B00000000000000C2900000000000000000FF
:0104AB00222E
:1004AC00D291D291E4FFFED2900000000000000037
:1004BC00000000000000000000EF25E0FF3091017B
:1004CC000FC29000000000000000000EBE08D8D241
:1004DC00910000000000000000D29000000000001D
:1004EC000000000000000000000000C290000000AE
:0504FC000000000000FB
:0105010022D7
:10060F00AD07AC061205EEED7807CEC313CE13D8A7
:10061F00F9543E4460FF12044BAF0512044B020520
:01062F00C505
:0E06A4001205EE7F6F12044B1204AC1205C556
:0106B2002225
:10019300E709F608DFFA8046E709F208DFFA803E4E
:1001A30088828C83E709F0A3DFFA8032E309F6083B
:1001B300DFFA8078E309F208DFFA807088828C83A3
:1001C300E309F0A3DFFA806489828A83E0A3F60857
:1001D300DFFA805889828A83E0A3F208DFFA804C31
:1001E30080D280FA80C680D4806980F28033801008
:1001F30080A680EA809A80A880DA80E280CA803371
:1002030089828A83ECFAE493A3C8C582C8CCC583E8
:10021300CCF0A3C8C582C8CCC583CCDFE9DEE780B8
:100223000D89828A83E493A3F608DFF9ECFAA9F037
:10023300EDFB2289828A83ECFAE0A3C8C582C8CC8D
:10024300C583CCF0A3C8C582C8CCC583CCDFEADEA6
:10025300E880DB89828A83E493A3F208DFF980CC08
:1002630088F0EF60010E4E60C388F0ED2402B40401
:100273000050B9F582EB2402B4040050AF232345A8
:0602830082239001E373E9
:10028900BB010689828A83E0225002E722BBFE0273
:09029900E32289828A83E49322A6
:1002A200BB010CE58229F582E5833AF583E0225011
:1002B20006E92582F8E622BBFE06E92582F8E2225B
:0D02C200E58229F582E5833AF583E4932275
:1002CF00BB010689828A83F0225002F722BBFE010E
:0202DF00F32208
:1002E100F8BB010DE58229F582E5833AF583E8F053
:1002F100225006E92582C8F622BBFE05E92582C8FF
:02030100F222E6
:00000001FF
