:03000000020253A6
:0C025300787FE4F6D8FD758107020003F7
:10022F00D291D29000000000C29100000000C29055
:05023F00000000002298
:1001FF00C29100000000D29000000000D2910000D8
:09020F000000D291000000002261
:10014600E4FEEF30E704D2918002C2910000000085
:10015600D290EF25E0FF0000000000000000C290F2
:10016600000000000EBE08DAD291D2910000000015
:10017600D2900000000000000000C29000000000C5
:010186002256
:10018700D291D291E4FFFED290000000000000005F
:1001970000EF25E0FF3091010FC290000000000E34
:1001A700BE08E4D29100000000D2900000000000D9
:0901B700000000C29000000000ED
:0101C000221C
:1001C100AD07AC0612022FED7807CEC313CE13D8BC
:1001D100F9543E4460FF120146AF05120146020187
:0101E100FF1E
:0E02440012022F7F6F1201461201871201FF76
:010252002289
:100003007F327E001201E27F037E041201C17F80F2
:100013007E051201C11201001201007F01120218B4
:100023007FC07E011201C17F011202187FC87E01C9
:100033001201C17F011202187FD07E011201C17F1C
:10004300011202187FD87E011201C17F011202182A
:100053007FE07E011201C17F011202187FE87E0159
:100063001201C17F011202187FF07E011201C17FCC
:10007300011202187FF87E011201C17F01120218DA
:100083007F887E081201C17F011202187F887E09D2
:100093001201C17F011202187F887E0A1201C17FFB
:1000A300011202187F887E0B1201C17F0112021810
:1000B3007F887E0C1201C17F011202187F887E0D9A
:1000C3001201C17F011202187F887E0E1201C17FC7
:1000D300011202187F887E0F1201C17F01120218DC
:1000E3002095FD7F147E001201E23095FD7F147E82
:0D00F300001201E27F007E081201C180E3CF
:1001E200D3EF9400EE940040137D057CC8AB041C51
:0C01F200EB70FADDF6EF1F70E71E80E4F2
:0101FE0022DE
:02021800A90734
:10021A00E9D39400400E7A057FC87E001201E2DA23
:04022A00F71980EC54
:01022E0022AD
:100100007F007E051201C17F007E0F1201C17F00BA
:100110007E0E1201C17F007E0D1201C17F007E0C98
:100120001201C17F007E0B1201C17F007E0A120105
:10013000C17F007E091201C17F007E081201C17FCC
:06014000807E050201C1F2
:00000001FF
